:020000040800F2
:10000000B8070020A90100088F1E0008F11C000895
:100010008D1E0008AF1300088F22000800000000AA
:10002000000000000000000000000000331F000876
:10003000B113000800000000311F0008351F000840
:10004000C3010008C3010008C3010008C301000880
:10005000C3010008C3010008B3130008C30100086E
:10006000C3010008C3010008C3010008C301000860
:10007000C3010008C3010008C3010008C301000850
:10008000C3010008C3010008C3010008C301000840
:10009000C3010008C3010008C3010008C301000830
:1000A000C3010008C3010008C3010008C301000820
:1000B000C3010008C3010008C3010008C301000810
:1000C000C3010008C3010008C3010008C301000800
:1000D000C3010008C3010008C3010008C3010008F0
:1000E000C3010008C3010008C301000800F002F8C2
:1000F00000F04AF80AA090E8000C82448344AAF178
:100100000107DA4501D100F03FF8AFF2090EBAE875
:100110000F0013F0010F18BFFB1A43F0010318473B
:100120003829000058290000103A24BF78C878C147
:10013000FAD8520724BF30C830C144BF04680C60ED
:10014000704700000023002400250026103A28BF35
:1001500078C1FBD8520728BF30C148BF0B60704739
:10016000662902F02884642900F05280002070473C
:100170001FB500F0DFFB04000020002102F036F97B
:10018000E0601FBD10B510BD00F0D4FC1146FFF7B4
:10019000EFFF02F0A9F800F0F2FC03B4FFF7F2FF62
:1001A00003BC00F035FD00000948804709480047BE
:1001B000FEE7FEE7FEE7FEE7FEE7FEE7FEE7FEE717
:1001C000FEE7FEE704480549054A064B7047000074
:1001D000391F0008ED000008B8010020B807002012
:1001E000B8030020B80300200FB41CB5074B06AAC3
:1001F0007B4469460090059800F083FB0020694627
:1002000000F092FB1CBC5DF814FB000035070000F9
:100210002DE9F0410646002410687529314616A5DF
:1002200010D0AFF30080002802DA404213A507E0A7
:1002300031688A0701D512A502E0490704D511A546
:10024000012401E0AFF3008000210A2206F1240717
:1002500009E0B0FBF2FCB0FBF2F302FB1C00303013
:1002600078541846491C0028F3D123462A463046C4
:10027000BDE8F04100F0D8B8000000002D000000FB
:100280002B000000200000002DE9F0474FF0000A8D
:1002900089460446C0F820A02046E1688847002827
:1002A00076D0252806D0D4E901219047206A401C49
:1002B0002062F1E7E168204600258847C4F81CA0C9
:1002C00006460027C4F818A02A2E09D0304602F0AE
:1002D00003F838B304EB8708303EC8F8186019E01B
:1002E00059F8041B204604EB87029161E1688847B6
:1002F000012F064618D1E069002820DA25F02005F4
:100300001DE0D8F8180000EB800006EB4000303804
:10031000C8F818002046E1688847064601F0DCFF6F
:100320000028EED1012F0AD02E2E08D12046E168F8
:1003300088477F1C0646022F45F02005C4DBA069D4
:10034000002803DA404245F00105A061E80701D02A
:1003500025F01005B6B1A6F14100192802D82036C3
:1003600045F400654A463146204625604D46FFF774
:10037000F7FE58B1012806D0ED1D25F0070000F169
:10038000080989E704E005F1040985E730468AE7B2
:10039000206ABDE8F08710B5431C02E010F8011B8D
:1003A00071B18107FAD14FF0013202C88C1A8C4327
:1003B00014EAC211F9D0C01A0A0603D0C01E10BD3B
:1003C000C01A10BD0A0401D0801E10BD0902FCD065
:1003D000401E10BD4FF0000200B5134694469646ED
:1003E000203922BFA0E80C50A0E80C50B1F1200148
:1003F000BFF4F7AF090728BFA0E80C5048BF0CC0F6
:100400005DF804EB890028BF40F8042B08BF704753
:1004100048BF20F8022B11F0804F18BF00F8012BC5
:1004200070477047704770472DE9F0470D46994671
:100430009246044600F124080168880604D5E06964
:1004400021F01001216000E00120A84201DD471BDE
:1004500000E00027A1697A1902EB0900081AA061DF
:100460002078C00602D42046AFF30080002608E0C2
:10047000D4E901211AF806009047206A401C761C36
:1004800020624E45F4DB2078C0060AD52046AFF343
:10049000008006E0D4E9012130209047206A401C0A
:1004A0002062381EA7F10107F4DC07E0D4E901213E
:1004B00018F805009047206A401C2062281EA5F10C
:1004C0000105F3DC2046AFF300802078000602D55A
:1004D0000220BDE8F0870120FBE770472DE9FF4FC0
:1004E0000C461E464FF0FF378BB0D2E90001DDF815
:1004F00060800A908A46C1F30A5505B93D4600213D
:1005000008464FF00000BAF1000F00F4400005DA91
:1005100000EB80004FF4400101EA50004FEA90598F
:10052000B9F1010F00DDB9460A9850EA4A000ED031
:1005300044F61050A5F2FF3545432F14B8F1000FD3
:100540001ED07542291E1EDDC9F100021CE0B8F163
:10055000010F4FF0000001D0302103E0F24305E02D
:100560002154401CB042FBDB3046002200212154C4
:100570000B99C1F80880C1E900200FB0BDE8F08FE9
:10058000BD1B6D1CDEE74A4600DA694206A800F092
:100590005BFA06AB93E8070003AB83E8070050461D
:1005A0000A9900F03CFB8DE80700A0F500501F38C9
:1005B00000900398002D0ADD42F21F014A460844CC
:1005C000002303A90390684600F0A5FD09E0A0F50B
:1005D00000504A461F38002303A90390684600F0E4
:1005E000AFFD8DE807000004000C03D04FF0FF3092
:1005F000410800E01046B8F1000F03D0002200923D
:1006000015461EE0751E05D400F098F9303262558B
:100610006D1EF9D5B3460122084302D000227F1C8B
:1006200004E02078302801D100227F1E002A09979B
:1006300084D01DE0112D07DA00F080F930326255C8
:100640006D1C50EA0102F5D1084302D00098C8B1F0
:100650000EE00021681E05E0235C625C63542254B6
:10066000401E491C8142F7DBAB46A81B401E099087
:10067000002004F80B000B98099AC0F80880C0E924
:10068000002B7AE711264FF0000857E72DE9F04FCD
:1006900088460446D21D22F0070191B0D1E900013D
:1006A000CDE90A0101F0F4FD02460B98C00F01D01C
:1006B0002D2007E02068810701D52B2002E02021B2
:1006C00001EAC000032A099001D0072A05DB03468E
:1006D0004146204600F078F90BE12078800601D5EC
:1006E000E06900E00620B8F1650F814606D0B8F158
:1006F000660F18D0B8F1670F70D131E00020B9F162
:10070000110F009001DB112301E009F101030AAA96
:1007100001A90CA8FFF7E2FEDDE90C70002609F143
:100720000105834647E001204B4600904FF000470B
:100730000AAA01A90CA8FFF7D1FEDDE90DB00C99BA
:100740005D46002610B909F101000D18B9EB05004E
:1007500003D4C0F1FF3609F10105A5EB09002BE038
:10076000B9F1010F01DA4FF001090020B9F1110FC1
:100770000090484601DD112300E003460AAA01A9C2
:100780000CA8FFF7ABFEDDE90C704D460026834652
:10079000207800070AD4AB4500DA5D4601A8012D98
:1007A00004DD411911F8011C302907D04F4502DA48
:1007B00017F1040F04DA012082460FE06D1EEEE708
:1007C000002F02DCED1B3E4403E0781CA84200DD54
:1007D0007D1CB81B00F1010A4FF00047207800078C
:1007E00003D4AA4501DB4FF0FF3A0021B7F1004FD7
:1007F0000DF143088DF8431024D002202B23002F45
:1008000001DA7F422D230A21021EA0F1010000DC43
:100810005FB197FBF1FC97FBF1F201FB1C7C1746E3
:100820000CF1300C08F801CDEEE7A8F101000370DF
:100830002188090501D5452100E06521A0F10108C5
:1008400000F8011C09980FA9A1EB0807FF1D00B1D2
:100850000120411901EBEA70A1693844081A401ED1
:10086000A0612078C00602D42046AFF3008009982A
:1008700028B1D4E901219047206A401C20622078E9
:10088000C00622D52046AFF300801EE0002E04DB18
:10089000B34502DD01A8805D00E03020D4E90121EC
:1008A0009047206A401C2062761CAAF101005FEA92
:1008B000000A0AD100F03EF8C0680168405CD4E943
:1008C00001219047206A401C2062281EA5F10105E5
:1008D000DCDC07E0D4E9012118F8010B9047206A1D
:1008E000401C2062381EA7F10107F3DC2046AFF35D
:1008F0000080032011B041E601694A1C02610878BA
:10090000704700B58FB0CDE901310021059105494F
:100910007944CDE9031011466846FFF7B5FC0FB0E6
:1009200000BD0000E5FFFFFF0A6802F8010B0A6046
:1009300070470000004870477401002030B5B0F1E6
:100940000A024FEA900E71F100034EEA817EB0EB8D
:100950000E0061EB91014FEA101E4EEA017E10EB92
:100960000E0041EB11114FEA102E4EEA016E10EB12
:100970000E0041EB11214FEA104E4EEA014E10EBF2
:100980000E0041EB1141401841F100014FEAD00047
:1009900040EA41704FEAD10110EB80054FEA810433
:1009A00044EA907444EB01046D1944EB0404521BB7
:1009B000A3414FF0000348BF0A3200D530BD401CB0
:1009C00041F1000130BD00002DE9F0411F46044611
:1009D00003260168072A01F4006004DB08B116A5AC
:1009E00005E016A503E008B115A500E015A521F066
:1009F00010002060A069C01EA0610FB1401EA06160
:100A00002046AFF300804FB1D4E90121384690472A
:100A1000206A401C2062C01C206206E0206AFAE7BF
:100A2000D4E9012115F8010B9047761EF8D2204633
:100A3000AFF30080BDE8F0814E414E006E616E0064
:100A4000494E4600696E66002DE9F047814616461C
:100A50008AB0354878440DC88DE80D003248784496
:100A6000801C03AC0DC884E80D0041F69B3008449F
:100A7000372190FBF1F290FBF1F5A5F1800501FB28
:100A800012041B3C02D56442012000E00020DFF884
:100A900098A080460027FA44AAF1BE0A0EE0E007BB
:100AA0000AD03246684607EB470101230AEB810171
:100AB00000F046FB8DE8070064107F1C002CEED18F
:100AC000194F7F44AE3F19E0E80715D007EB04103B
:100AD0000DF1180A90E80E008AE80E00C068F04296
:100AE00001D1981908903246012306A903A800F005
:100AF00027FB03AB83E807006D10641C002DE3D1D6
:100B00004FF0010332466946B8F1000F03A802D046
:100B100000F001FB01E000F013FBC9E90001C9F896
:100B200008200AB0BDE8F087E81F000000487047C1
:100B3000540100207546FFF7F9FFAE4605006946EF
:100B4000534620F00700854618B020B5FFF73AFB62
:100B5000BDE820404FF000064FF000074FF00008BE
:100B60004FF0000B21F00701AC46ACE8C009ACE83F
:100B7000C009ACE8C009ACE8C0098D46704710B5A3
:100B80000446AFF300802046BDE81040FFF705BBE8
:100B90004FF0013C50F8042B51F8043B9A4221D10C
:100BA000A2EB0C03934313EACC1317D150F8042B98
:100BB00051F8043B9A4215D1A2EB0C03934313EA7C
:100BC000CC130BD150F8042B51F8043B9A4209D1B5
:100BD000A2EB0C03934313EACC13DBD04FF00000DD
:100BE000704700BFD01A01BAB1FA81F101F01801C3
:100BF00022FA01F0CB40C1F12001DBB2C0B2C01A31
:100C00002CFA01F3D11A914311EAC311E6D17047CE
:100C100001491820ABBEFEE72600020070475FEADC
:100C2000400C08BF91F0000F4FEA8C234FEAC1221D
:100C300043EA51514FEA1C5018BF00F5F0404FEA0B
:100C4000300018BF41F000415FEA6C5C00F0298081
:100C5000BCF1FF3F08BF40F080407047130C06BF57
:100C600012044FF0100C4FF0000C130E04BF1202D0
:100C70000CF1080C130F04BF12010CF1040C930FBC
:100C800004BF92000CF1020CD30F04BF52000CF110
:100C9000010C11464FF00002A0F11F00A0EB0C0068
:100CA000704711F0004F08BF704731F000413FF42A
:100CB000D5AF0B0C06BF09044FF0100C4FF0000C21
:100CC0000B0E04BF09020CF1080C0B0F04BF090145
:100CD0000CF1040C8B0F04BF89000CF1020CCB0F3C
:100CE00004BF49000CF1010CCCF12003A0EB0C0077
:100CF00022FA03F302FA0CF241EA030100F10100C7
:100D0000704720F07F4C80EA030023F07F47ACEB74
:100D1000070303F57C5300F0004003F1FF032DE9C6
:100D200080494FEA154B09B44FEA144325EA0B4EAC
:100D300024EA03480FF2042606EB132749083E78FD
:100D40005FEA320203FB0667C7F5000707FB06F6FA
:100D50004FEA54374FEAD64606F1020607FB066C07
:100D6000CCF1005C4FEA1C472CEA074C07FB06F469
:100D70000CFB06F504EB15464FEA961634BF00202F
:100D80004FF000404FEAD13706FB07FC4FEA1C4CFE
:100D90000CFB0BF7D21B03FB0CF761EB07010CFB01
:100DA0000EF7B0EB074072EB17420CFB08F734BFAD
:100DB000A2EB0742B2EB074261EB17414FEA0C444A
:100DC0004FEA910706FB07FC4FEA1C4C0CFB0BF7A4
:100DD000B0EBC74072EB573203FB0CF734BFA2EB0A
:100DE000C742B2EBC74261EB57310CFB0EF7B0EBD9
:100DF000C70072EB57720CFB08F734BFA2EBC702B7
:100E0000B2EBC70261EB5771039F4FEA816141EA80
:100E1000921104EBCC044FEAD1374FEA826206FB11
:100E200007FC42EA90124FEA80604FEA1C4C0CFB30
:100E30000BF7D21B03FB0CF761EB07010CFB0EF762
:100E4000B0EB074072EB17420CFB08F734BFA2EB84
:100E50000742B2EB074261EB17414FEA8C554FEA6C
:100E6000910704EB9C2406FB07FC4FEA1C4C0CFB8F
:100E70000BF7B0EBC74072EB573203FB0CF734BFF4
:100E8000A2EBC742B2EBC74261EB57310CFB0EF746
:100E9000B0EBC70072EB57720CFB08F734BFA2EB44
:100EA000C702B2EBC70261EB577115EB4C254FEA55
:100EB000816141EA92114FEA82624FEAD13742EAF8
:100EC000901206FB07FC44F100044FEA80604FEAF1
:100ED0001C4C0CFB0BF7D21B03FB0CF761EB07015F
:100EE0000CFB0EF7B0EB074072EB17420CFB08F758
:100EF00034BFA2EB0742B2EB074261EB174115EB9F
:100F00001C154FEA813141EA92414FEA823242EAAE
:100F100090424FEA80304FEA0C7644F1000448EAF0
:100F200003434EEA0B484FF0000EB2EB080C71EB96
:100F3000030724BF624639464EEB0E0E4FF0000BFE
:100F40000018524149414BEB0B0BB2EB080C71EB13
:100F500003077BF1000B24BF624639464EEB0E0EB1
:100F60004FF0000B0018524149414BEB0B0BB2EB19
:100F7000080C71EB03077BF1000B24BF6246394676
:100F80004EEB0E0E51EA020718BF46F0010616EBB3
:100F90000E7655F1000254F1000103D5BDE8890138
:100FA000BDE80088BDE88901BDE80048B619524196
:100FB00041EB0101A3F10103704780807F7E7D7CBE
:100FC0007B7A7978777676757473727171706F6EDB
:100FD0006E6D6C6C6B6A6A69686867666665646486
:100FE000636362616160605F5F5E5E5D5D5C5C5B10
:100FF0005B5A5A595958585757565655555554547F
:10100000535352525251515050504F4F4F4E4E4DDC
:101010004D4D4C4C4C4B4B4B4A4A4A494949484828
:101020004847474747464646454545444444444368
:1010300043434342424242414141002B9C4630D40B
:1010400077002BD01CB54FEA370703B44FF01000E0
:101050004FF01001BAF1000F06D0BCF1000FDCBF59
:1010600040F0080040F008014FF000000FBCBDE860
:1010700010400BF1010BBBF1010F08BF5FEA17072E
:1010800022BF12F1010211F101014FF0004143F1C1
:10109000000300F0004043EA00007047F9D357080E
:1010A000D0E746EA064613F1400F4FEA16461FDD29
:1010B00013F1200FDFBF16430A46002120335B42A5
:1010C000BED0C3F1200746EA064602FA07F74FEA08
:1010D000164646EA0706C3F1200722FA03F201FA90
:1010E00007F721FA03F14FF0000342EA0702A7E7EE
:1010F00046EA020646EA06464FEA164646EA010670
:10110000BCBF46EA0646360C4FF000034FF0000223
:101110004FF0000194E72DE9804C9A46934670B455
:1011200091E8380007C831EA400C48BF34EA430C64
:1011300003D5FFF7E6FDFFF780FFF0BCBDE8008CAC
:101140002DE9804C9A46934670B491E8380007C860
:1011500010F0804F08BF13F0804F03D100F005F866
:10116000FFF76BFFF0BCBDE8008C20F07F4780EA02
:10117000030023F07F4C07EB0C03A3F57C5300F036
:101180000040A3F1FE0392F0000F00F0B38095F051
:10119000000F00F077802DE901494FEA11404FEA36
:1011A000144621EA004800FB06FC24EA064708FB37
:1011B00006F607FB08F800FB07F718EB06484CEBB0
:1011C000164C4FEA124B18EB07484FEA15464CEB0A
:1011D000174022EA0B4E0BFB06FC25EA06470EFBE6
:1011E00006F607FB0EFE0BFB07F71EEB064E4CEB5D
:1011F000164C4FF000061EEB074E4CEB174B18EB4E
:101200000B0840F1000018EB0E0B58EB000840F102
:1012100000008F1A4FF000013CBFC943661B14BF8A
:10122000B5EB040C00213CBFC943F61B4FEA174441
:101230004EEA8E0E27EA04454FEA1C4704FB07627C
:101240002CEA074C05FB07F70CFB05F604FB0CFC2E
:1012500016EB074642EB174216EB0C4642EB1C42DC
:101260001BEB060658EB0202414146EA9E0601D5F9
:10127000BDE80189B619524141EB0101A3F1010317
:10128000BDE801894FEA14454FEA114724EA0546B3
:1012900021EA074C05FB07F406FB07F70CFB06F1F8
:1012A00005FB0CFC11EB074144EB17444FEA1247D6
:1012B00011EB0C4144EB1C4422EA074C05FB07F2FE
:1012C00006FB07F70CFB06F605FB0CFC16EB0746C6
:1012D00042EB174216EB0C4642EB1C456A1854F1E0
:1012E000000148BF7047B619524141EB0101A3F11B
:1012F0000103704795F0000F37D04FEA11424FEAD3
:10130000144721EA024624EA074C02FB07F106FBD8
:1013100007F70CFB06F402FB0CFC14EB074441EB53
:1013200017414FEA154714EB0C4441EB1C4125EAE9
:10133000074C02FB07F506FB07F70CFB06F602FB62
:101340000CFC16EB074645EB174516EB0C4645EB38
:101350001C42121951F1000148BF7047B6195241A1
:1013600041EB0101A3F1010370474FEA14454FEA35
:10137000114724EA054621EA074C05FB07F106FB65
:1013800007F70CFB06F24FF0000605FB0CFC12EB16
:10139000074241EB174112EB0C4251EB1C4148BF95
:1013A0007047921841EB0101A3F101037047FEE77A
:1013B0007047012000F05CB872B6044C2021204632
:1013C00000F057F9642000F01DF8F7E7000C014029
:1013D000084810B50068416A074CA068A160081A67
:1013E00001F090F9054901F0ABF8054901F0A8F8C2
:1013F000606010BD7C000020000000200000304232
:10140000CDCCCC3D70B5044600F040F90546601CDB
:1014100002D004480078044400F038F9401BA04290
:10142000FAD370BD2400002010B5012818D1142073
:10143000FFF7E8FF01210B4800F016F958B90A48F8
:101440000178491CC9B20170032901D90121017039
:101450000021416101610548016841F0010101601D
:1014600010BD0000000801400000002014040140ED
:10147000044910B50A68024202D00860FFF7D4FFA1
:1014800010BD0000140401402DE9F84FDFF8B891B9
:101490000024A9F1040B23460F2709F1040AABF13C
:1014A000040EC9E00125A5402A40AA427DD1674E1D
:1014B000D1F804C0ACEB0608B44532D014DCBCF162
:1014C000030F3AD009DCBCF1000F2AD0BCF1010FA8
:1014D0001CD0BCF1020F31D11DE0BCF1110F17D0AF
:1014E000BCF1120F2AD119E0B8F5881F19D006DC1B
:1014F000B8F5803F15D0B8F5801F1FD111E0B8F5C1
:10150000001F0ED0B8F5041F18D10AE0CB6815E013
:10151000CB681B1D12E0CB6808330FE0CB680C339F
:101520000CE08B682BB1012B4FF0080303D0456111
:1015300004E0042302E0056100E00023FF2A01D853
:10154000064601E000F104064FEA840501D9A5F141
:101550002005D6F8008007FA05FC28EA0C0803FAF3
:1015600005F548EA0508C6F800804D68ED0062D52B
:10157000374DAE6946F00106AE61AD6924F0030651
:1015800005F001050095334D06EB050CDCF808501D
:10159000A607360F07FA06F825EA0805DFF8B8802F
:1015A000404503D14FF0000817E044E0DFF8AC807D
:1015B000404502D14FF001080FE0DFF8A48040451C
:1015C00002D14FF0020808E0DFF89880404502D1D0
:1015D0004FF0030801E04FF0040808FA06F848EA63
:1015E0000508CCF808804D68D9F80060ED024D463A
:1015F00001D5164300E096432E604D68DAF800608E
:10160000AD02554601D5164300E096432E604D6865
:10161000DBF80060AD035D4601D5164300E096435C
:101620002E604D68DEF80060ED03754601D5164367
:1016300000E096432E60641C0D682A46E5407FF466
:1016400031AFBDE8F88F0000080401400000111020
:10165000001002400000014000080140000C014061
:1016600000100140001401408068084000D00120B3
:101670007047C26821EA02030A4043EA024101615D
:1016800070470AB1016170470904FBE701488068AF
:10169000704700002400002002488168027811444D
:1016A0008160704724000020074810B5016841F0B0
:1016B00010010160032000F075F80F2000F006F81B
:1016C00000F024F8002010BD0020024070B50D4D40
:1016D00004464FF47A712878B1FBF0F00A490968A2
:1016E000B1FBF0F000F090F848B9102C07D20022BE
:1016F0002146501E00F036F800206C6070BD0120BD
:1017000070BD000024000020300000200C4808B507
:10171000816941F001018161816901F0010100915C
:10172000C16941F08051C161C06900F080500090F2
:101730000448416821F0E06141F08061416008BDEA
:101740000010024000000140002809DB00F01F02E9
:10175000012191404009800000F1E020C0F8001113
:1017600070470000F0B40E4B1B680C46C3F3022315
:10177000C3F10705042D00D90425191D072901D23D
:10178000002300E0DB1E012606FA05F1491E214078
:1017900099409E40761E16403143F0BC00F08CBD4F
:1017A0000CED00E0064900F0070208684FF6FF0361
:1017B000184040EA0220034A1043086070470000C6
:1017C0000CED00E00000FA0504480549006849688E
:1017D000044AC1F30221515CC84070473000002028
:1017E00000100240BA290008044805490068496809
:1017F000044AC1F3C221515CC84070473000002048
:1018000000100240BA29000810B5401EB0F1807FD8
:1018100001D3012010BD4FF0E02460610F2160175B
:1018200000F04AFD0020A06107202061002010BDCB
:101830002DE9F0410D46040003D094F83D0018B1A5
:1018400008E00120BDE8F081002084F83C0020463B
:1018500000F040F8022084F83D002068816844F2DE
:10186000070291438160211D206800F067FB226818
:1018700090689169166A2B68AF69034340F20330A0
:10188000814341EA0721A868EF6908434FF6FC410C
:101890008843E96840EA0720014328692F6A00016C
:1018A00040EA0730084369686D6926F0220646EA77
:1018B0000515294393602268906154F8460B016234
:1018C000012004F81F09E0752076E0762077A075E6
:1018D0000020B7E700B585B0002100910191029189
:1018E000039100680D49884216D10D48C16941F045
:1018F0000201C161C16901F002010491816941F0F5
:10190000040181618069694600F004000490C020F0
:1019100000900448FFF7B8FD05B000BD000400408A
:10192000001002400008014070B590F83E60044687
:1019300090F83F5090F8423090F84320022021B1B7
:1019400004290ED0012E1BD114E0012E18D1012B39
:1019500016D184F83E0084F842000122002120685C
:1019600020E0012D0CD1012A0AD184F83F0084F82F
:10197000430014E0012D03D1012B01D1012A01D034
:10198000012070BD84F83E0084F83F0084F84200D6
:1019900084F8430001220021206800F00BFB0122A3
:1019A0000421206800F006FB2068016841F0010175
:1019B0000160002070BD70B5044690F83C00002620
:1019C0000D4601280FD0012084F83C006AB1042A9A
:1019D0001DD0082A2FD00C2A3FD00126002084F8E1
:1019E0003C00304670BD022070BD206800F0F0FA67
:1019F0002068816941F0080181612068816921F0D6
:101A000004018161206881692A69114311E020681D
:101A100000F006FB2068816941F400618161206863
:101A2000816921F480618161206881692A6941EAC4
:101A300002218161D2E7206800F01EFB2068C169A5
:101A400041F00801C1612068C16921F00401C16150
:101A50002068C1692A69114311E0206800F038FB51
:101A60002068C16941F40061C1612068C16921F445
:101A70008061C1612068C1692A6941EA0221C161AE
:101A8000ACE710B5040003D094F83D0010B107E0B6
:101A9000012010BD002084F83C00204600F01EF814
:101AA000022084F83D00211D206800F047FA012043
:101AB00084F8460084F83E0084F83F0084F8400033
:101AC00084F8410084F8420084F8430084F844001C
:101AD00084F8450084F83D00002010BD70470000E8
:101AE00010B50446022249B104290ED0082913D0AA
:101AF00094F84100012816D0012010BD94F83E0052
:101B00000128F9D184F83E200FE094F83F00012825
:101B1000F2D184F83F2008E094F840000128EBD18E
:101B200084F8402001E084F841200122206800F080
:101B300041FA0F492068884203D1426C42F40042C6
:101B400042642068884208D0B0F1804F05D009492E
:101B5000884202D00849884204D1816801F0070117
:101B6000062903D0016841F001010160002010BD89
:101B7000002C0140000400400008004070B5040043
:101B800004D094F84100002510B106E0012070BD9A
:101B900084F84050204600F023F8242084F84100C7
:101BA0002068C16821F40051C160204600F0DAFAD3
:101BB0002068016921F4904101612068416921F0A8
:101BC0002A0141612068C16841F40051C160656427
:101BD000202084F8410084F842006563002070BD35
:101BE00030B585B0002400940194029403940068F9
:101BF0001449884224D11448816941F480418161AB
:101C0000816901F480410491816941F0040181619D
:101C100080690E4D00F0040004904FF400700090B5
:101C2000022001900320039069462846FFF72CFC10
:101C30002815CDE90004694628460294FFF724FCE4
:101C400005B030BD003801400010024000080140DE
:101C50002DE9F843044690F84100984616460D4693
:101C6000202802D00220BDE8F88385B17EB1002093
:101C70006064212084F84100FFF708FDA6848146B6
:101C8000E684A0682027B0F5805F02D003E0012041
:101C9000E9E7206910B12E4600250EE000260CE091
:101CA0008021204600F0BAFAA8B9C6B116F8010B97
:101CB00021684860E08C401EE084E08C4B464FF089
:101CC0000002CDF800800028EAD14FF04001204604
:101CD00000F0A4FA40B184F841700320C3E735F85E
:101CE000020BC0F30800E3E784F841700020BAE774
:101CF000FEE70000114810B501781148012909D00C
:101D000002290CD0032917D101222021BDE810405F
:101D1000FFF7B7BCBDE810402021FFF7AABC0122A5
:101D200020210446FFF7ADFC4FF4AF70FFF76AFBCC
:101D3000002220212046E9E710BD0000000000201D
:101D4000000C0140F0B585B022480025039581695B
:101D500041F004018161816901F00401049181690C
:101D600041F0080181618069012400F008000490BD
:101D700019486946CDE9004018480294FFF784FBF2
:101D8000202002268DE87100154F69463846FFF77E
:101D90007BFB03208DE8710069463846FFF774FB32
:101DA000002220213846FFF76CFC00220121384632
:101DB000FFF767FC012202213846FFF762FC002290
:101DC00001210620FFF7CEFC0620FFF7BDFC05B081
:101DD000F0BD00000010024000002110000801408A
:101DE000000C014010B513488AB011490024C0E925
:101DF00000144FF6FF71C0E902410461846124219F
:101E00006846FEF7E7FA0320CDE900040120CDE99A
:101E100002040494CDE905400794694605480894F6
:101E2000FFF706FD002801D0FFF7C6FA0AB010BD83
:101E3000000400407C00002010B5134888B0114910
:101E4000016047210024C0E9011440F2E731C0E9F4
:101E500003148461FFF715FE78B91C216846FEF76C
:101E6000B9FA6020CDE900040294002269460648D0
:101E70000494FFF7A0FD002801D0FFF79DFA08B0F9
:101E800010BD000000080040C4000020FEE7FEE78F
:101E90002DE9F0411F48A0F11804217800EB8100E2
:101EA000616850F8040C00F011FD05460146E06041
:101EB000606900F0E3FA18496061884202DC174962
:101EC000884200D961612846216900F0FFFC14496D
:101ED00000F030FC06461349606900F02BFC074611
:101EE0001149284600F026FC394600F0C7FA314671
:101EF00000F0C4FA00F0E6FB80B24FF47A71608023
:101F0000884200D961800949608809684863256171
:101F1000BDE8F081180000200000F0410000F0C191
:101F2000000040400000204100007042C40000203A
:101F300070477047FFF7B0BB70470000F0B502680C
:101F4000194B1A4C1A4D4FF08047984205D0B842B1
:101F500003D0A04201D0A84203D122F070064A6803
:101F60003243984205D0B84203D0A04201D0A842E3
:101F700003D122F44074CA6822434C6922F08002E3
:101F8000224302608A68C2620A688262984201D172
:101F900009690163012141610169C90703D0016930
:101FA00021F001010161F0BD002C0140000400405E
:101FB0000008004010B501F01F030121046A994098
:101FC0008C430462016A9A401143016210BD000013
:101FD00030B5036A026A22F0010202624268846933
:101FE00024F073050C682C4323F002058B682B4307
:101FF0000A4DA8420BD123F00805CB6822F44072A9
:102000002B434D6923F0040315438A692A43426038
:10201000846149684163036230BD0000002C0140C7
:1020200030B5026A036A23F01003036243688469CF
:102030000D6824F4E64444EA05248D6822F0200269
:1020400042EA05120B4DA8420ED1CD6822F0800263
:1020500042EA05124D6923F4406343EA85038D6922
:1020600022F0400243EA850343608461496881634A
:10207000026230BD002C014030B5036A026A22F4CE
:10208000807202624268C46923F4007324F073050D
:102090000C682C438D6843EA05230C4DA8420ED1F1
:1020A000CD6823F4006343EA05234D6922F44052CE
:1020B00042EA05128D6923F4806342EA0512426008
:1020C000C4614968C163036230BD0000002C014057
:1020D00030B5046A026A22F4805202624268C3691F
:1020E0000D6823F4E64343EA05238D6824F4005485
:1020F00044EA0534064DA84204D14D6922F48042D9
:1021000042EA85124260C36149680164046230BDDD
:10211000002C014001680C3151E8002F22F490722C
:1021200041E80023002BF5D10168143151E8002F5C
:1021300022F0010241E80023002BF5D1016B0129B7
:1021400009D101680C3151E8002F22F0100241E85A
:102150000023002BF5D1202180F8421000210163DB
:102160007047000070B5044600680169E26821F418
:102170004051114301612169A06808436169084326
:102180002168CA6841F20C639A430243CA6020681E
:102190004169A26921F44071114341611E492068DF
:1021A000884202D1FFF720FB01E0FFF70DFB00EBB7
:1021B000C00101EB0012606864218000B2FBF0F303
:1021C000B3FBF1F36FF018067343B2FBF0F5B2FB0B
:1021D000F0F605EB8305322303EB0515B5FBF1F5AE
:1021E000B6FBF1F605F0F00505EB0615B2FBF0F6CF
:1021F000B2FBF0F0B0FBF1F06FF01802504306EBC9
:10220000800003EB0010B0FBF1F0216800F00F003C
:102210002844886070BD0000003801402DE9F84373
:10222000984617460D460446089E24E0701C22D0AE
:10223000FFF72CFAA0EB0800B0421AD8CEB1206804
:10224000C168490717D5802D15D0402D13D00168DE
:10225000C94309070FD40168002540680090204653
:10226000FFF758FF0820606484F840500120BDE863
:10227000F8830320FBE72068006835EA000004D0FB
:102280000020B842D2D00020F1E70120F9E7FEE7B4
:10229000490050EAC12018BF04204A0D18BF40F081
:1022A000010040F2FF72B2EB515F08BF40F0020044
:1022B000012808BF052070470907090E002804DB24
:1022C00000F1E02080F80014704700F00F0000F1EA
:1022D000E02080F8141D704730380A2801D2012010
:1022E00070470020704700009AB0FFF7DDF9FFF754
:1022F00029FD2C482A490C2201604FF4E13141604C
:1023000000218160C160C0E904128161C161FFF7F1
:1023100035FC08B1FFF750F8FFF764FDFFF78CFDBF
:1023200000212148FFF7DCFB04212048FFF7FCFADD
:102330001F4C002201212046FFF7A3F901220221B0
:102340002046FFF79EF91B4C04F11808FFF740F8F0
:10235000FFF79EFDFFF7CEFC606800F063F827787A
:10236000054608EB87000E4650F8040C00F05AF8BA
:102370006288CDE903628DE823003A460EA105A8E4
:10238000FDF732FF05A8FEF706F882B2642305A91F
:102390000448FFF75DFC6420FFF734F8D6E700003F
:1023A000003801400C010020C40000207C00002007
:1023B000000C014000000020476561723A25642C42
:1023C000205461726765743A252E31667270732CE1
:1023D0002041637475616C3A252E31667270732CDE
:1023E0002050574D3A25640D0A00000010B5002911
:1023F0000AD00878002807D005487844FEF7C8FBC3
:10240000002801D0002010BD0248784410BD000013
:102410007E060000760600000808A0F500114FEACD
:102420003101704743004FEAD30C4FEA3C0C434064
:102430001FBF40070CF1605113F0FE4F70471CF0B6
:10244000006F03D100200CF0004170470CF00043F6
:1024500043EA507010B540EACC0000F0ECF900BF40
:10246000000000924FEA0001FFF7D6BF4FF0004195
:102470004FF00000A1F500217047000090EA010F25
:1024800048BF81F0004100F12882421A3CBF801A07
:1024900089184FEAD0524FF07F4C1CEA410FA2EB53
:1024A000D15318BF9CEA026F00F03B804FF0004C04
:1024B0004CEA00204CEA012121FA03FC10EB0C0C41
:1024C0001ED202F1FF325FEA1C2040EBC25038BF3F
:1024D00070471CF07F0F4FEA400C18BFBCF17F4FD4
:1024E00038BF7047C3F12003994008BF20F00100B6
:1024F000BCF17F4F38BF7047A0F1C04000F0E1B998
:102500004FEA3C00000A40EBC25028BF1CF0FF0F0E
:102510004FEA400CE6D018BFBCF17F4F38BF704780
:10252000EAE79CEA026F05D010EA5C0F08BF00F0F2
:102530000040704710B500F07EF900BF64FBBE3E5E
:102540004FF47F0C1CEAD0121EBF1CEAD11392EA92
:102550000C0F93EA0C0F00F0858090EA010F48BF42
:1025600042F4807240F4000C41F400002CF07F41F2
:1025700020F07F4000B58142A2EB03020FF2081C5D
:10258000ACEB504EC0F100009EF800E04FEA4E0E5A
:1025900000FB0EFC38BF49004FEA2C1C02F5FA0282
:1025A0000CFB0EF34FEACE1E4FEA112C4FEAC1216D
:1025B0000EEB635E42EB22420EFB0CFC4FEA1C5317
:1025C00000FB03114FEA112C4FEA01310EFB0CFC0A
:1025D0004FEADC4C00FB0C11C14228BF09184CEB40
:1025E00003335DF804EB10EB410143EBC250B2F54D
:1025F0007C0F38BF704729D512F0F00F1CBF00F1D7
:10260000C04000F000407047008182838485868747
:1026100088898B8C8D8E8F919293959697999A9CA1
:102620009D9FA0A2A3A5A7A8AAACAEB0B2B3B5B710
:10263000B9BCBEC0C2C5C7C9CCCED1D4D7D9DCDFE6
:10264000E2E6E9ECF0F3F7FAFE0000004FEA400C96
:102650000CF1807CBCF17E4F28BF7047B0F1C040C8
:1026600000F02FB990EA010F0CEAD11348BF42F4F1
:102670008072624538BF634507D213F47F0F16D0CE
:1026800080EA010000F00040704710B500F0D3F878
:10269000097EFC3E00F005B880EA010000F0004031
:1026A000704780EA010000F0004000F00AB912F41F
:1026B0007F0F04BF0248704780EA010000F001B9B3
:1026C0000000C07FC10DD1F19E0206DB4FEA00235E
:1026D00043F0004323FA02F07047004207D54FEA67
:1026E0004001B1F1FE4F02D24FF00000704710B52B
:1026F00000F0A1F849922480002070476FEA200082
:102700007047000010F0004148BF4042B0FA80F32B
:1027100010FA03F2C3F19D030BD051EAC35101EB50
:102720001220530638BF704700F1010008BF20F0A7
:10273000010070474FF47F0C1CEAD0121EBF1CEA48
:10274000D11392EA0C0F93EA0C0F00F0478090EA45
:10275000010F48BF42F480724FF0004C4CEA002059
:102760004CEA012102EB0302A0FB0113A2F50002D7
:10277000002918BF43F001035B0028BF4FEA330371
:1027800042EB22425FEA132C4CEBC2502EBFBCEB53
:10279000436FB2F57C0F70474FEA036CBCF1004FFA
:1027A00008BF20F00100B2F57C0F38BF70470BD591
:1027B00082F0FF0212F5803FC8BF704700F1C040B1
:1027C000D8BF00F00040704700F5000C5FEA4C0CE9
:1027D00048BF7047B0F1C04000F073B890EA010FF5
:1027E0000CEAD11348BF42F48072624538BF63459A
:1027F00004D280EA010000F00040704710B500F0FC
:102800001AF800BF8900013E00F007B800F009B8CF
:102810005FEA410C5FEA1C6C08D080EA010000F01E
:1028200050B85FEA400C5FEA1C6CF6D14FF00040F4
:10283000A0F5800070470EF1020E2EF0030E5EF838
:10284000044B244204D44FEA4102B2F17F4F11D825
:102850004FEA4003B3F17F4F0CD80ED14FEAD07C42
:10286000B2F17F4F0CEB4C0C0CF1020C08BF4CEB9F
:10287000D17C04E04FF0080C01E04FEAD17C0CEB76
:102880004C0324FA03F404F00704B4F1040C06D258
:102890000EEB840CBDE810404CF0010C6047DFE803
:1028A0000CF0070802024FF00040A0F5800010BDB8
:1028B0000846420018BFD2F1807288BF00F0004085
:1028C00010BDFF2141EAD050C005704790EA010FCA
:1028D00048BF81F000413FF5D8AD421A04D882F0DC
:1028E0000042A0EB020011444FEAD0524FF07F4C5F
:1028F0001CEA410FA2EBD15318BF9CEA026F4AD0E9
:102900004FF0004C4CEA00204CEA012121FA03FC74
:10291000B0EB0C0C0FD412F0FE0F36D05FEA4C0077
:102920001DD5001240EBC25038BF70471CF03F0F5E
:1029300018BF70470BE0A2F101025FEA1C2040EBD8
:10294000C25038BF70471CF07F0F18BF7047C3F1EB
:102950002003994014BF401E20F0010070478008FA
:102960004FEA122308BF7047B0FA80FCA2EB0C02BA
:10297000CCF1280C60FA0CF093EA122F04BF00EBA4
:10298000C25070474FEAC3707047130A5FEADC1009
:1029900008BF7047F6E79CEA026F04D010EA5C0FAC
:1029A00008BF0020704710B5FFF745FF40DFF63E37
:1029B00081F000407047FDF769BE00000000010291
:1029C0000304000002400000000000A0000000001E
:1029D00005400000000000C8000000000C4000009E
:1029E0000000409C00000000194000000020BCBE18
:1029F0000000000034400000BFC91B8E000000042E
:102A0000B5400000504BCFD06607E2CF0100000078
:102A10006C4100003E8251AADFEEA73401000000A5
:102A2000D9420000DCB5A0E23A301F97FFFFFFFF5C
:102A3000B4450000FD25A0C8E9A3C14FFFFFFFFF7B
:102A4000FF3F00000000008000000000FF3F00008A
:102A50000000008000000000942A00080000002010
:102A60003400000028010008C82A000834000020B3
:102A700084070000440100081C000000430000001F
:102A8000F8FFFFFF0C0000000E0000000F00000028
:102A90002E00000001000000000000000000000007
:102AA0000000000000000000000000000000803F67
:102AB0000000C03F000000400100000010000000C6
:082AC0000000000000127A0082
:04000005080000ED02
:00000001FF
