:020000040800F2
:10000000080400200101000841050008D50400088B
:100010003D05000853030008290D000800000000FA
:100020000000000000000000000000004D07000874
:1000300057030008000000000907000839080008FD
:100040001B0100081B0100081B0100081B01000820
:100050001B0100081B0100081B0100081B01000810
:100060001B0100081B0100081B0100081B01000800
:100070001B0100081B0100081B0100081B010008F0
:100080001B0100081B0100081B0100081B010008E0
:100090001B0100081B0100081B0100081B010008D0
:1000A0001B0100081B0100081B0100081B010008C0
:1000B0009D0800081B0100081B0100081B01000827
:1000C0001B0100081B0100081B0100081B010008A0
:1000D0001B0100081B0100081B0100081B01000890
:1000E0001B0100081B0100081B010008DFF80CD0F1
:1000F00000F018F8004800474B0D000808040020E5
:100100000648804706480047FEE7FEE7FEE7FEE7B1
:10011000FEE7FEE7FEE7FEE7FEE7FEE73D08000834
:10012000ED000008064C074D06E0E06840F00103D2
:1001300094E8070098471034AC42F6D3FFF7DAFF93
:10014000601000088010000821B1826842F00102AE
:10015000826003E0826822F00102826070470146FB
:1001600000208A6802F004020AB1012000E00020A9
:1001700070470146C86C80B2704702460020136881
:100180000B400BB1012000E0002070470146002029
:100190008A6802F008020AB1012000E000207047DE
:1001A00030B502460020002350680F4C20400D79E6
:1001B0000C6844EA05242043506090680B4C2040B2
:1001C000D1E902542C434D7944EA45042043906020
:1001D000D06A20F470000C7C641EE4B2234340EA31
:1001E0000350D06230BD0000FFFEF0FFFDF7F1FFCD
:1001F00000B587B001214FF4017000F097FAFF209D
:10020000ADF8180000208DF81B0006A9164800F074
:10021000C6F8002001908DF808008DF809004FF411
:10022000602003900020049001208DF8140001A9A3
:100230000E48FFF7B5FF01210C48FFF785FF0B487B
:1002400000F072F800BF0948FFF7A0FF0028FAD1BC
:10025000064800F079F800BF0448FFF780FF002847
:10026000FAD107B000BD00000008014000240140A1
:10027000F0B504460D4600200021092D11DDE0688F
:10028000A5F10A0606EB4607072606FA07F188439A
:10029000A5F10A0606EB460603FA06F10843E060FC
:1002A0000CE0206905EB4507072606FA07F18843AD
:1002B00005EB450603FA06F108432061072A0FDA29
:1002C000606B561E06EB86071F2606FA07F1884369
:1002D000561E06EB860605FA06F10843606322E027
:1002E0000D2A0FDA206BD61F06EB86071F2606FAAB
:1002F00007F18843D61F06EB860605FA06F1084388
:10030000206310E0E06AA2F10D0606EB86071F26C7
:1003100006FA07F18843A2F10D0606EB860605FAF8
:1003200006F10843E062F0BD816841F00801816098
:10033000704721B1826842F4A002826003E08268C3
:1003400022F4A00282607047816841F0040181605C
:10035000704700BFFEE7704700B5034603E04FF467
:100360007A7000F005F8181EA3F10103F7D100BD63
:1003700000EBC001C9004FF0E02251610021916102
:100380000521116100BF4FF0E021096901F48031BE
:100390000029F8D004214FF0E022116170472DE9C7
:1003A000F0410246002500260020002300240027FB
:1003B00091F803C00CF00F0591F803C00CF0100C7D
:1003C000BCF1000F03D091F802C04CEA050591F88A
:1003D00000C0BCF1000F31D0146800202BE04FF0BA
:1003E000010C0CFA00F3B1F800C00CEA03069E42BF
:1003F00020D183004FF00F0C0CFA03F7BC4305FA31
:1004000003FC4CEA040491F803C0BCF1280F06D1A8
:100410004FF0010C0CFA00FCC2F814C00AE091F88D
:1004200003C0BCF1480F05D14FF0010C0CFA00FCE1
:10043000C2F810C0401C0828D1D31460B1F800C025
:10044000BCF1FF0F34DD546800202EE000F1080CF1
:100450004FF0010808FA0CF3B1F800C00CEA0306EB
:100460009E4221D183004FF00F0C0CFA03F7BC43DE
:1004700005FA03FC4CEA040491F803C0BCF1280F10
:1004800005D100F1080C08FA0CF8C2F8148091F8B4
:1004900003C0BCF1480F07D100F1080C4FF0010870
:1004A00008FA0CF8C2F81080401C0828CED354601B
:1004B000BDE8F0810246002093680B400BB101209B
:1004C00000E000207047000001480068704700000D
:1004D0000000002000BFFEE710B500244FF40041EB
:1004E0000A48FFF7E7FF70B91420FFF735FF00BF98
:1004F0004FF400410548FFF7DDFF0028F8D0142035
:10050000FFF72AFF0124204610BD0000000801402B
:1005100008B50121042000F009F948208DF80300F6
:100520004FF40040ADF8000003208DF8020069464A
:100530000148FFF734FF08BD0008014000BFFEE797
:100540007047000070B5002100230F22C47804B367
:10055000154C246804F4E064C4F5E064210AC1F198
:100560000403CA40447804FA03F184781440214318
:1005700009010E4C0678A155047804F01F050124EA
:10058000AC4005786D11AD0005F1E025C5F80041DE
:1005900009E0047804F01F050124AC40044D0678FE
:1005A000761145F8264070BD0CED00E000E400E057
:1005B00080E100E000B589B00121042000F0A6F838
:1005C0000121082000F0B2F84020ADF820001820EA
:1005D0008DF8230003208DF8220008A94848FFF772
:1005E000DEFE8020ADF8200018208DF823000320C7
:1005F0008DF8220008A94248FFF7D1FE4FF4807021
:10060000ADF8200018208DF8230003208DF822007B
:1006100008A93B48FFF7C3FE4FF40070ADF8200077
:1006200018208DF8230003208DF8220008A93448F3
:10063000FFF7B5FE6320ADF818002320ADF81400D5
:100640000020ADF81A00ADF8160005A92D4800F0FD
:10065000FFFA6020ADF804000120ADF8060000208C
:10066000ADF80A00ADF80C0001A9264800F08CF99D
:100670006020ADF804000120ADF806000020ADF8C0
:100680000A00ADF80C0001A91E4800F0D3F9602063
:10069000ADF804000120ADF806000020ADF80A0016
:1006A000ADF80C0001A9174800F024FA6020ADF85D
:1006B00004000120ADF806000020ADF80A00ADF8F6
:1006C0000C0001A90F4800F06FFA08210D4800F056
:1006D000A7F908210B4800F0FFF90821094800F0AC
:1006E00059FA0821074800F09DFA0121054800F059
:1006F00015F90121034800F020F909B000BD000000
:10070000000C0140000800407047000029B1064A73
:10071000D2690243044BDA6104E0034AD26982439E
:10072000014BDA61704700000010024029B1064A0F
:1007300092690243044B9A6104E0034A926982433E
:10074000014B9A617047000000100240704710B5DD
:1007500000F002F810BD00000CB5002001900090E0
:100760003348006840F480303149086000BF3048A9
:10077000006800F4003000900198401C019000983F
:1007800018B90198B0F5A06FF1D12948006800F4BC
:10079000003010B10120009001E00020009000988E
:1007A000012843D12348006840F010002149086027
:1007B0000846006820F0030008600846006840F022
:1007C000020008601A4840681949486008464068B5
:1007D00048600846406840F48060486008464068C9
:1007E00020F47C1048600846406840F4E8104860F7
:1007F0000846006840F08070086000BF0C48006840
:1008000000F000700028F9D00948406820F003008B
:10081000074948600846406840F00200486000BF51
:100820000348406800F00C000828F9D10CBD000016
:1008300000100240002002407047000010B513482D
:10084000006840F0010011490860084640681049FE
:1008500008400E494860084600680E4908400B49A8
:1008600008600846006820F4802008600846406858
:1008700020F4FE0048604FF41F008860FFF767FF18
:100880004FF000600449086010BD000000100240F5
:100890000000FFF8FFFFF6FE08ED00E010B50121B3
:1008A000880700F056F840B104480068401C03492E
:1008B00008600121880700F03DF810BD000000200D
:1008C0001FB501210846FFF721FF40F2E730ADF8E0
:1008D00008004720ADF804000020ADF80A00ADF88C
:1008E000060001A94FF0804000F0B2F90122114644
:1008F000900700F03FF81C208DF8000002208DF8D2
:1009000001008DF8020001208DF803006846FFF712
:1009100019FE0121880700F010F81FBD21B10288DF
:1009200042F08002028004E002884FF67F731A4092
:1009300002807047CA430282704721B1028842F0A8
:100940000102028004E002884FF6FE731A40028022
:10095000704730B50246002000230024158A05EABE
:100960000103958905EA010413B10CB1012000E0EF
:10097000002030BD1AB183890B43838102E0838953
:100980008B4383817047000070B500240022002350
:10099000058C4FF6FE7635400584028C8388048BE7
:1009A0004FF68F752C40B51E2C400D882C43751EBC
:1009B0002A400D892A434D882A43144DA8420BD062
:1009C000134DA84208D0134DA84205D0124DA8429D
:1009D00002D0124DA84213D14FF6F7752A404D8927
:1009E0002A434FF6FB752A408D882A434FF6FF6550
:1009F0002B404FF6FF552B408D892B43CD892B4340
:100A000083800483CD888586028470BD002C0140DC
:100A100000340140004001400044014000480140D2
:100A20000A460021018B4FF6F773194011430183E9
:100A30007047000070B5002400220023058C4FF69B
:100A4000EF7635400584028C8388048B48F6FF7569
:100A50002C404FF6FF452C400D884FF6FF7606EAF6
:100A600005252C434FF6DF752A400D8906EA05154A
:100A70002A434D8806EA05152A43154DA84202D09F
:100A8000144DA8421DD14FF67F752A404D894FF66F
:100A9000FF7606EA05152A434FF6BF752A408D8872
:100AA00006EA05152A434FF6FF352B404FF2FF7536
:100AB0002B408D8906EA85052B43CD8906EA8505FD
:100AC0002B4383800483CD880587028470BD00009A
:100AD000002C0140003401400A460021018B4FF2F6
:100AE000FF7319404FF6FF7303EA02231943018392
:100AF0007047000070B5002400220023058C4FF6DB
:100B0000FF6635400584028C8388848B4FF68F7591
:100B10002C404FF6FC752C400D882C434FF6FF55AA
:100B20002A400D894FF6FF7606EA05252A434D88AF
:100B300006EA05252A43154DA84202D0144DA842C5
:100B40001DD14FF2FF752A404D894FF6FF7606EA18
:100B500005252A434FF6FF352A408D8806EA0525EC
:100B60002A434EF6FF752B404DF6FF752B408D89BD
:100B700006EA05152B43CD8906EA05152B4383802C
:100B80008483CD888587028470BD0000002C0140DD
:100B9000003401400A460021818B4FF6F77319405B
:100BA000114381837047000070B5002200230024A8
:100BB000058C4EF6FF7635400584038C8488828B45
:100BC00048F6FF752A404FF6FF452A400D884FF63C
:100BD000FF7606EA05252A434DF6FF752B400D8961
:100BE00006EA05352B434D8806EA05352B430B4DA8
:100BF000A84202D00A4DA84208D14BF6FF752C40FE
:100C00008D894FF6FF7606EA85152C438480828312
:100C1000CD88A0F84050038470BD0000002C014036
:100C2000003401400A460021818B4FF2FF731940C6
:100C30004FF6FF7303EA02231943818370478186CD
:100C400070470187704781877047A0F84010704750
:100C5000002202881D4B98420ED01D4B98420BD0AB
:100C6000B0F1804F08D01B4B984205D01A4B9842E8
:100C700002D01A4B984204D14FF68F731A404B881A
:100C80001A43174B984207D0164B984204D04FF6A0
:100C9000FF431A40CB881A4302808B8883850B88D8
:100CA00003850A4B98420BD0094B984208D00E4B53
:100CB000984205D00D4B984202D00D4B984201D17D
:100CC0000B7A03860123838270470000002C0140C9
:100CD000003401400004004000080040000C0040C7
:100CE000001000400014004000400140004401405A
:100CF0000048014010B50446052301222146094859
:100D0000FFF7B6FA01210748FFF713FB00BF0221E6
:100D10000448FFF732FA0028F9D00248FFF729FA11
:100D200010BD00000024014000BFFEE702E008C83B
:100D3000121F08C1002AFAD170477047002001E055
:100D400001C1121F002AFBD1704788B000F06AF978
:100D5000FFF7DEFBFFF74CFAFFF7B2FD00BFFFF72E
:100D6000BBFB0028FBD0002007900027804613E142
:100D70000720FFF7BFFFB0F5FA6F01DB012000E0AD
:100D8000002006900620FFF7B5FFB0F5FA6F01DBF3
:100D9000012000E0002081460520FFF7ABFFB0F501
:100DA000FA6F01DB012000E0002082460420FFF7FB
:100DB000A1FFB0F5FA6F01DB012000E000208346BF
:100DC0000320FFF797FFB0F5FA6F01DB012000E089
:100DD000002005460220FFF78DFFB0F5FA6F01DB1A
:100DE000012000E0002006460120FFF783FFB0F558
:100DF000FA6F01DB012000E0002005900020FFF7E2
:100E000079FFB0F5FA6F01DB012000E000200490CB
:100E1000069808B9012000E00020B9F1000F01D1C7
:100E2000012100E000210844BAF1000F01D10121A5
:100E300000E000210844BBF1000F01D1012100E0D6
:100E40000021084403900DB9012000E000200EB9F4
:100E5000012100E000210144059808B9012000E0CB
:100E600000200144049808B9012000E00020084453
:100E70000290FFF729FB04460798012806D11420A9
:100E8000FFF76AFA00200790274685E003980328B9
:100E900008DBB8F1010F03D1E01BB0F57A7F01D96F
:100EA000012000E0002001900298032808DBB8F13F
:100EB000020F03D1E01BB0F57A7F01D9012000E0D9
:100EC000002000903DB936B90021552000F097F878
:100ED0004FF000085CE0019898B10120079080462F
:100EE000002000F080F86420FFF736FA4FF4077115
:100EF000622000F052F84FF49671552000F07FF810
:100F000046E00098A0B1012007904FF002080020B1
:100F100000F069F86420FFF71FFA4FF407716220B0
:100F200000F04EF84FF49671552000F068F82FE06D
:100F3000B9F1000F05D0BAF1000F02D0BBF1000FDC
:100F400004D10021502000F028F821E0059808B1D4
:100F500006B125B90021502000F032F818E00698BB
:100F600090B9B9F1000F0FD1BAF1000F0CD1BBF15C
:100F7000000F09D145B93EB9059828B9049818B9A8
:100F8000002000F030F803E00021552000F037F891
:100F90000820FFF7E1F900BFEAE670B504460D4608
:100FA000642C00DD6424002C00DA0024E2B200236B
:100FB0001946184600F03AF82846FFF7CDF970BDFB
:100FC00070B504460D46642C00DD6424002C00DA64
:100FD0000024E0B200231A46194600F027F82846FC
:100FE000FFF7BAF970BD10B5044600231A4619463A
:100FF000184600F01BF82046FFF7AEF910BD70B59B
:1010000004460D46642C00DD6424002C00DA002424
:10101000E2B2E0B20023194600F008F82846FFF7D4
:101020009BF970BD10B5FFF7C5FA10BD2DE9F04171
:1010300004460F4615461E4621460848FFF7FFFDA9
:1010400039460648FFF7FDFD29460448FFF7FBFD3A
:1010500031460248FFF7F9FDBDE8F0810008004085
:101060008010000800000020040000002C0D000883
:101070008410000804000020040400003C0D000857
:04108000000000006C
:04000005080000ED02
:00000001FF
