:020000040800F2
:100000008007002089010008BF1200088510000841
:10001000BD1200088F0200081F1700080000000032
:10002000000000000000000000000000EB130008CA
:100030009102000800000000E9130008791400088C
:10004000A3010008A3010008A3010008A301000800
:10005000A3010008A3010008A3010008A3010008F0
:10006000A3010008A3010008A3010008A3010008E0
:10007000A3010008A3010008A3010008A3010008D0
:10008000A3010008A3010008A3010008A3010008C0
:10009000A3010008A3010008A3010008A3010008B0
:1000A000A3010008A3010008A3010008A3010008A0
:1000B000A3010008A3010008A3010008A301000890
:1000C000A3010008A3010008A3010008A301000880
:1000D000A3010008A3010008A3010008A301000870
:1000E000A3010008A3010008A301000800F002F822
:1000F00000F03AF80AA090E8000C82448344AAF188
:100100000107DA4501D100F02FF8AFF2090EBAE885
:100110000F0013F0010F18BFFB1A43F0010318473B
:10012000D81D0000F81D0000103A24BF78C878C11F
:10013000FAD8520724BF30C830C144BF04680C60ED
:10014000704700000023002400250026103A28BF35
:1001500078C1FBD8520728BF30C148BF0B60704739
:100160001FB51FBD10B510BD00F058F81146FFF7C0
:10017000F7FF01F0E5FA00F076F803B4FFF7F2FFBD
:1001800003BC00F07DF8000009488047094800479B
:10019000FEE7FEE7FEE7FEE7FEE7FEE7FEE7FEE737
:1001A000FEE7FEE704480549054A064B7047000094
:1001B000DB140008ED00000880010020800700200B
:1001C00080030020800300204FF0000200B513469A
:1001D00094469646203922BFA0E80C50A0E80C5067
:1001E000B1F12001BFF4F7AF090728BFA0E80C5018
:1001F00048BF0CC05DF804EB890028BF40F8042B11
:1002000008BF704748BF20F8022B11F0804F18BF7D
:1002100000F8012B7047704770477047754600F033
:100220002BF8AE4605006946534620F00700854688
:1002300018B020B5FFF7B6FFBDE820404FF000062C
:100240004FF000074FF000084FF0000B21F00701BE
:10025000AC46ACE8C009ACE8C009ACE8C009ACE801
:10026000C0098D46704710B50446AFF300802046A4
:10027000BDE81040FFF781BF004870472001002013
:1002800001491820ABBEFEE7260002007047FEE7DA
:100290007047000007480068416A074A506B081A17
:1002A000106100D54042012801DC0020106151633B
:1002B00070470000D80000200000002070B5044600
:1002C00000F010F90546601C02D004480078044490
:1002D00000F008F9401BA042FAD370BD380000209E
:1002E0002DE9F84FDFF8B8910024A9F1040B23465B
:1002F0000F2709F1040AABF1040EC9E00125A5405E
:100300002A40AA427DD1674ED1F804C0ACEB060862
:10031000B44532D014DCBCF1030F3AD009DCBCF197
:10032000000F2AD0BCF1010F1CD0BCF1020F31D15B
:100330001DE0BCF1110F17D0BCF1120F2AD119E04A
:10034000B8F5881F19D006DCB8F5803F15D0B8F590
:10035000801F1FD111E0B8F5001F0ED0B8F5041FA3
:1003600018D10AE0CB6815E0CB681B1D12E0CB6802
:1003700008330FE0CB680C330CE08B682BB1012BFA
:100380004FF0080303D0456104E0042302E0056157
:1003900000E00023FF2A01D8064601E000F1040630
:1003A0004FEA840501D9A5F12005D6F8008007FAA7
:1003B00005FC28EA0C0803FA05F548EA0508C6F822
:1003C00000804D68ED0062D5374DAE6946F00106FC
:1003D000AE61AD6924F0030605F001050095334DCB
:1003E00006EB050CDCF80850A607360F07FA06F8EE
:1003F00025EA0805DFF8B880404503D14FF0000832
:1004000017E044E0DFF8AC80404502D14FF001082E
:100410000FE0DFF8A480404502D14FF0020808E069
:10042000DFF89880404502D14FF0030801E04FF01B
:10043000040808FA06F848EA0508CCF808804D6870
:10044000D9F80060ED024D4601D5164300E0964311
:100450002E604D68DAF80060AD02554601D51643AE
:1004600000E096432E604D68DBF80060AD035D460A
:1004700001D5164300E096432E604D68DEF800601B
:10048000ED03754601D5164300E096432E60641CCB
:100490000D682A46E5407FF431AFBDE8F88F0000D3
:1004A000080401400000111000100240000001404B
:1004B00000080140000C0140001001400014014000
:1004C0008068084000D001207047C26821EA02031A
:1004D0000A4043EA0241016170470AB10161704775
:1004E0000904FBE7014880687047000038000020DD
:1004F000024881680278114481607047380000200A
:10050000074810B5016841F010010160032000F0B8
:1005100067F80F2000F006F800F024F8002010BD66
:100520000020024070B50D4D04464FF47A712878D2
:10053000B1FBF0F00A490968B1FBF0F000F0AEFA47
:1005400048B9102C07D200222146501E00F028F88E
:1005500000206C6070BD012070BD000038000020DC
:10056000440000200C4808B5816941F00101816117
:10057000816901F001010091C16941F08051C161BF
:10058000C06900F0805000900448416821F0E061AB
:1005900041F00071416008BD0010024000000140C0
:1005A000F0B40E4B1B680C46C3F30223C3F10705DE
:1005B000042D00D90425191D072901D2002300E0CC
:1005C000DB1E012606FA05F1491E214099409E4096
:1005D000761E16403143F0BC01F0A2B80CED00E0ED
:1005E000064900F0070208684FF6FF03184040EA8A
:1005F0000220034A10430860704700000CED00E041
:100600000000FA052DE9F0470F46050061D0434E82
:10061000306800F00700B84209D2306820F00700C7
:1006200038433060306800F00700B84251D1286884
:100630003B4C810712D5400703D5606840F4E06069
:1006400060602878000703D5606840F460506060FF
:100650006068A96820F0F000084360602878C0074F
:1006600028D06868012810D02168022810D0890796
:1006700000292EDA616821F0030101436160FFF770
:1006800031FF804641F288390DE021688903EFE7A8
:100690008901EDE7FFF726FFA0EB0801494502D9E4
:1006A0000320BDE8F0876068696800F00C00B0EBDB
:1006B000810FEFD1306800F00700B8420BD93068E5
:1006C00020F0070038433060306800F00700B8427F
:1006D00001D00120E5E72878400705D56068E96882
:1006E00020F4E060084360602878000706D5606861
:1006F000296920F4605040EAC100606000F018F8F9
:100700006168084AC1F30311515CC840064908609A
:1007100006480068FFF706FF0020C2E700200240FD
:1007200000100240E81E0008440000203C000020A9
:100730000E4A51680E4801F00C03042B11D0082B0F
:100740000FD10C48C1F38343C903C05C0AD551687B
:10075000084AC1F34041921E515C054A5043B0FB28
:10076000F1F0704704494843704700000010024010
:1007700000127A00D81E000800093D002DE9F84F4C
:10078000040070D02078C04DC00749D06868C0F31D
:100790008100012807D06868C0F38100022809D1D0
:1007A0006868C00306D52868800339D560680028CA
:1007B000E7D035E06068B0F5803F0BD010B1B0F500
:1007C000A02F11D0286820F480302860286820F4F9
:1007D000802002E0286840F480302860606890B192
:1007E000FFF780FE06460AE0286840F48020286073
:1007F000F0E700BFFFF776FE801B642873D82868F7
:100800008003F7D50CE0FFF76DFE064605E000BF5C
:10081000FFF768FE801B6428F0D828688003F7D4AF
:1008200020789A4E80074FF001094FF0000839D523
:10083000686810F00C0F07D06868C0F381000228C8
:1008400009D16868C00306D42868800714D52069D8
:10085000012808D110E02069B0B1C6F80090FFF778
:1008600041FE074605E00AE1FFF73CFEC01B0228F7
:10087000C4D828688007F7D52868616920F0F80097
:1008800040EAC10028600DE0C6F80080FFF72AFEAC
:10089000074604E0FFF726FEC01B022823D828687D
:1008A0008007F7D4207800072CD57948A169D9B101
:1008B000C0F80090FFF716FE074604E0FFF712FEAF
:1008C000C01B02280FD8686A8007F7D571484FF41B
:1008D000FA510068B0FBF1F0009000BF0098411E93
:1008E0000091FAD20EE080E0C0F80080FFF7FAFD38
:1008F000074604E0FFF7F6FDC01B022875D8686ABA
:100900008007F7D42078400760D5E8690027C00049
:1009100008D4E86940F08050E861E869012700F0F8
:10092000805000905C480168C90513D40168834673
:1009300041F480710160FFF7D5FD824606E000BFFB
:10094000FFF7D0FDA0EB0A0064284ED8DBF80000CA
:10095000C005F5D5E06801280AD008B1052813D0F4
:10096000286A20F001002862286A20F0040002E0D2
:10097000286A40F001002862E06841F2883B98B1A3
:10098000FFF7B0FD82460BE0286A40F004002862C1
:10099000EEE700BFFFF7A6FDA0EB0A0159455AD8C4
:1009A000286A8007F6D50CE0FFF79CFD824605E03B
:1009B000FFF798FDA0EB0A0159454CD8286A80073B
:1009C000F6D41FB1E86920F08050E861E06988B38F
:1009D0006968C1F38101022944D00228C6F8608009
:1009E00004D0FFF77FFD044638E034E0FFF77AFDDE
:1009F000074604E0FFF776FDC01B02282BD82868C5
:100A00008001F7D4206AB0F5803F05D16868A168FD
:100A100020F4003008436860D4E90801084369689D
:100A200021F4741108436860C6F86090FFF75AFD1E
:100A3000044606E025E000BFFFF754FD001B022836
:100A400009D828688001F7D51BE000BFFFF74AFDF1
:100A5000001B022802D90320BDE8F88F2868800116
:100A6000F4D40EE00128F7D06868226A00F48031DF
:100A7000914204D1616A00F47010884201D00120D3
:100A8000EAE70020E8E700000010024000004242D0
:100A900080044242440000200070004010B5401E17
:100AA000B0F1807F01D3012010BD4FF0E0246061E0
:100AB0000F21601700F034FE0020A06107202061A4
:100AC000002010BD70B590F83C20012A26D00124EA
:100AD00080F83C40022280F83D2003685A689D68F7
:100AE00022F070060A6832435A600D4B02689A423F
:100AF00008D0B2F1804F05D00A4B9A4202D00A4B7F
:100B00009A4204D1496825F080031943916080F826
:100B10003D40002180F83C10084670BD022070BDA9
:100B2000002C0140000400400008004010B5040003
:100B300003D094F83D0010B107E0012010BD002063
:100B400084F83C00204600F01FF8022084F83D00A5
:100B5000211D206800F0C2FC012084F8460084F8C2
:100B60003E0084F83F0084F8400084F8410084F897
:100B7000420084F8430084F8440084F8450084F877
:100B80003D00002010BD000008B50068B0F1804FA6
:100B900008D10548C16941F00101C161C06900F097
:100BA0000100009008BD00000010024070B504462E
:100BB00090F83C000025012817D0012684F83C60FD
:100BC000022084F83D002068826822F0770222F437
:100BD0007F4282600868502838D00DDC20284FD032
:100BE00005DC90B3102811D14AE0022070BD3028F6
:100BF00046D040280AD13BE060282FD070280DD085
:100C0000B0F5805F03D0B0F5005F12D0012584F805
:100C10003D60002084F83C00284670BDCB68D1E9D7
:100C20000121206800F0A3FC2068816841F0770171
:100C300009E0CB68D1E90121206800F098FC206828
:100C4000816841F480418160E1E719E0CA68496840
:100C5000206800F041FD5021206806E0CA6849681C
:100C6000206800F04AFD6021206800F08AFCCEE791
:100C7000CA684968206800F02FFD40212068F4E729
:100C8000226801461046F0E72DE9F0410D460400C8
:100C900003D094F83D0018B108E00120BDE8F081D0
:100CA000002084F83C00204600F040F8022084F840
:100CB0003D002068816844F2070291438160211D54
:100CC000206800F00BFC226890689169166A2B6816
:100CD000AF69034340F20330814341EA0721A8682A
:100CE000EF6908434FF6FC418843E96840EA072072
:100CF000014328692F6A000140EA07300843696808
:100D00006D6926F0220646EA05152943936022689C
:100D1000906154F8460B0162012004F81F09E07548
:100D20002076E0762077A0750020B7E700B585B083
:100D30000021009101910291039100680D498842C0
:100D400016D10D48C16941F00201C161C16901F0CC
:100D500002010491816941F0040181618069694661
:100D600000F004000490C02000900448FFF7B8FA97
:100D700005B000BD00040040001002400008014022
:100D800070B590F83E60044690F83F5090F84230BD
:100D900090F84320022021B104290ED0012E1BD14E
:100DA00014E0012E18D1012B16D184F83E0084F8EE
:100DB000420001220021206820E0012D0CD1012AEF
:100DC0000AD184F83F0084F8430014E0012D03D1D8
:100DD000012B01D1012A01D0012070BD84F83E0011
:100DE00084F83F0084F8420084F843000122002187
:100DF000206800F0AFFB01220421206800F0AAFB6C
:100E00002068016841F001010160002070BD000010
:100E100010B586B0002100910191029103911A4C06
:100E200003681A4902221A48A34210D18B6943F081
:100E300004038B618969039201F004010491C114D8
:100E4000CDE900126946FFF74BFA06B010BDB3F1C9
:100E5000804FFAD18B6943F004038B618969039257
:100E600001F0040104914FF40041CDE900126946FC
:100E7000FFF736FA0748416821F4407141F0E0611C
:100E800041F480714160E0E7002C01400010024015
:100E9000000801400000014070B5044690F83C0095
:100EA00000260D4601280FD0012084F83C006AB1CD
:100EB000042A1DD0082A2FD00C2A3FD0012600205A
:100EC00084F83C00304670BD022070BD206800F000
:100ED00061FB2068816941F00801816120688169B6
:100EE00021F004018161206881692A69114311E0C0
:100EF000206800F077FB2068816941F4006181611E
:100F00002068816921F480618161206881692A6992
:100F100041EA02218161D2E7206800F08FFB20685E
:100F2000C16941F00801C1612068C16921F0040173
:100F3000C1612068C1692A69114311E0206800F08D
:100F4000A9FB2068C16941F40061C1612068C169E1
:100F500021F48061C1612068C1692A6941EA0221E6
:100F6000C161ACE710B5040003D094F83D0010B1A6
:100F700007E0012010BD002084F83C00204600F06E
:100F80001FF8022084F83D00211D206800F0A6FA19
:100F9000012084F8460084F83E0084F83F0084F87D
:100FA000400084F8410084F8420084F8430084F84B
:100FB000440084F8450084F83D00002010BD000086
:100FC00008B500680649884208D10648816941F49D
:100FD00000618161806900F40060009008BD00003C
:100FE000002C01400010024010B50446022249B115
:100FF00004290ED0082913D094F84100012816D0F6
:10100000012010BD94F83E000128F9D184F83E205B
:101010000FE094F83F000128F2D184F83F2008E067
:1010200094F840000128EBD184F8402001E084F8D6
:1010300041200122206800F08DFA0F492068884283
:1010400003D1426C42F4004242642068884208D0D6
:10105000B0F1804F05D00949884202D00849884242
:1010600004D1816801F00701062903D0016841F02D
:1010700001010160002010BD002C0140000400406F
:1010800000080040FEE700002DE9F0412B4C2C4FFA
:101090000126A07860B10025012814D0022805D1CE
:1010A00001213846FFF70CFA012817D0BDE8F0817E
:1010B00001213846FFF704FA0028F7D1A670FFF7A0
:1010C00011FA2063F2E7FFF70DFA216B401A1E2890
:1010D000ECD301213846FFF7F3F908B1A570E5E735
:1010E0002078401C10F00300207006D0012807D0A3
:1010F000022817D003280CD119E0A560E58004E090
:101100004FF07E50A060502015E06670FFF7EAF9BE
:10111000A0616562022138462562FFF7D6F90220F8
:10112000A070C3E74FF08040A060C82003E00548EE
:10113000A0604FF49670E080E7E700000000002018
:10114000000801400000404070B586B000241848F7
:101150000094019402940394816941F00401816137
:101160008069144E00F0040004902246302130467D
:10117000FFF7B3F930200125CDE900050320CDE9C3
:10118000024069463046FFF7ABF8CDE900546946A6
:1011900030460295FFF7A4F80221CDE90015CDE90C
:1011A000024169463046FFF79BF806B070BD00006B
:1011B000001002400008014010B58EB000240794D2
:1011C000089409940A940B941C2168460C94FEF729
:1011D000FBFF1E484FF0804101604721C0E9011428
:1011E00040F2E731C0E903148461FFF79FFC08B1C6
:1011F00072B6FEE74FF48050079007A91348FFF737
:10120000D5FC08B172B6FEE71048FFF7ABFE08B197
:1012100072B6FEE70B940BA90C480C94FFF752FC36
:1012200008B172B6FEE76020CDE900040294002206
:10123000694606480494FFF72FFE08B172B6FEE730
:101240000248FFF7E5FD0EB010BD00009000002041
:1012500010B58CB024216846FEF7B6FF002416486E
:10126000099414490A94C0E900144FF6FF71C0E9CB
:101270000241046184610320CDE900040120CDE92D
:10128000020405210491CDE90540CDE907416946F5
:101290000948FFF7F9FC08B172B6FEE7099409A9FD
:1012A00005480A94FFF70EFC002801D072B6FEE74D
:1012B0000CB010BD00040040D8000020FEE7FEE79F
:1012C0002DE9F047FFF70EF9404CA169401AB0F53F
:1012D0007A7F04D2E08800F0D3FBE0626DE0A06882
:1012E0004FF0000710F0FF4F18D0E16800F00EFD3E
:1012F0003749DFF8E080384D0646E061884210DD6E
:101300004146304600F004FC616A00F04BFA334974
:101310006062884200DD0846606203E0E76267625F
:101320004BE067623046216A00F0F0FC414600F075
:10133000ADFA2B49A06200F0EBFB81464FF0FF3184
:10134000606A00F08AFD80462946304600F0E0FBE6
:101350000746E08800F094FB0646394600F022FA82
:10136000414600F01FFA494600F01CFA0146E062CF
:10137000304600F099FC03D2E08800F081FBE06287
:10138000E0880A3000F07CFBE16A00F08DFB01D3BD
:10139000E06A04E0E0880A3000F072FBE062114984
:1013A000884201DDE16206E0A84204DAA068B0F5F7
:1013B000000F00DBE562E0692062E06A00F028FBD4
:1013C00080B2A080BDE8F04700F010B80000002017
:1013D000CDCCCC3D8FC2F53D0000F0410000404037
:1013E000000020410000FA437047704770B50F4D70
:1013F0000F4E04000CD0012210212846FFF76DF893
:10140000002220212846FFF768F83068446370BD49
:10141000002210212846FFF760F8002220212846EC
:10142000FFF75BF831680020486370BD0008014099
:101430009000002010B5FFF755F80C4C6169401A78
:10144000782811D3FEF726FF2069002800DA4042F1
:1014500000F0FEFA064900F019FA064900F016FA03
:10146000E060FFF73FF8606110BD00000000002061
:101470000000D0418FC2F53DFFF73AB830B58FB0CC
:1014800028216846FEF7A0FE14210AA8FEF79CFE5C
:1014900001210804CDE900100024029402250491E2
:1014A000CDE907504FF4E01009906846FFF766F960
:1014B00008B172B6FEE70F20CDE90A054FF480604F
:1014C000CDE90C4002210AA80E94FFF79BF80028F2
:1014D00001D072B6FEE70FB030BD7047F0B50268BC
:1014E000194B1A4C1A4D4FF08047984205D0B8421C
:1014F00003D0A04201D0A84203D122F070064A686E
:101500003243984205D0B84203D0A04201D0A8424D
:1015100003D122F44074CA6822434C6922F080024D
:10152000224302608A68C2620A688262984201D1DC
:1015300009690163012141610169C90703D001699A
:1015400021F001010161F0BD002C014000040040C8
:101550000008004010B501F01F030121046A994002
:101560008C430462016A9A401143016210BD10B5B8
:10157000846842EA032224F47F440A4322438260BF
:1015800010BD826822F070020A4342F007018160B8
:101590007047000030B5036A026A22F0010202625D
:1015A0004268846924F073050C682C4323F002051B
:1015B0008B682B430A4DA8420BD123F00805CB685A
:1015C00022F440722B434D6923F0040315438A69CA
:1015D0002A434260846149684163036230BD000070
:1015E000002C014030B5026A036A23F01003036245
:1015F000436884690D6824F4E64444EA05248D6850
:1016000022F0200242EA05120B4DA8420ED1CD680D
:1016100022F0800242EA05124D6923F4406343EA56
:1016200085038D6922F0400243EA850343608461AB
:1016300049688163026230BD002C014030B5036A05
:10164000026A22F4807202624268C46923F4007361
:1016500024F073050C682C438D6843EA05230C4D78
:10166000A8420ED1CD6823F4006343EA05234D69F7
:1016700022F4405242EA05128D6923F4806342EA63
:1016800005124260C4614968C163036230BD000055
:10169000002C014030B5046A026A22F480520262D2
:1016A0004268C3690D6823F4E64343EA05238D6865
:1016B00024F4005444EA0534064DA84204D14D698F
:1016C00022F4804242EA85124260C36149680164A3
:1016D000046230BD002C014010B5036A046A24F096
:1016E00001040462846924F0F00444EA021423F043
:1016F0000A020A438461026210BD10B5036A046ADB
:1017000024F010040462846923F0A00324F47044DC
:1017100044EA023243EA01118261016210BDFEE730
:101720000907090E002804DB00F1E02080F800140E
:10173000704700F00F0000F1E02080F8141D7047A2
:10174000FEF7DEFEFFF79AFEFFF7FEFCFFF734FD23
:10175000FFF77EFD00210F48FFF746FC04210E48ED
:10176000FFF70EFB0C49002009684862FEF7BAFE3D
:101770000A490022486102210948FEF7AEFE00BF77
:10178000FFF782FCFFF756FEFFF79AFD0F20FEF7EA
:1017900095FDF5E790000020D80000200000002013
:1017A0000008014090EA010F48BF81F0004100F1BC
:1017B000B482421A3CBF801A89184FEAD0524FF0C7
:1017C0007F4C1CEA410FA2EBD15318BF9CEA026F79
:1017D00000F03B804FF0004C4CEA00204CEA012125
:1017E00021FA03FC10EB0C0C1ED202F1FF325FEA6F
:1017F0001C2040EBC25038BF70471CF07F0F4FEAEF
:10180000400C18BFBCF17F4F38BF7047C3F12003B5
:10181000994008BF20F00100BCF17F4F38BF7047EE
:10182000A0F1C04000F03BBA4FEA3C00000A40EB98
:10183000C25028BF1CF0FF0F4FEA400CE6D018BF83
:10184000BCF17F4F38BF7047EAE79CEA026F05D0D2
:1018500010EA5C0F08BF00F00040704710B500F0C0
:10186000D8F900BF64FBBE3E014800F0C4BA00BF17
:101870000000C07F401058BFC0F14040491058BF21
:10188000C1F140418142EFF3008070474FF47F0C7B
:101890001CEAD0121EBF1CEAD11392EA0C0F93EA85
:1018A0000C0F00F0858090EA010F48BF42F480726F
:1018B00040F4000C41F400002CF07F4120F07F4008
:1018C00000B58142A2EB03020FF2081CACEB504EB4
:1018D000C0F100009EF800E04FEA4E0E00FB0EFC47
:1018E00038BF49004FEA2C1C02F5FA020CFB0EF33C
:1018F0004FEACE1E4FEA112C4FEAC1210EEB635E78
:1019000042EB22420EFB0CFC4FEA1C5300FB03117E
:101910004FEA112C4FEA01310EFB0CFC4FEADC4C74
:1019200000FB0C11C14228BF09184CEB03335DF8D2
:1019300004EB10EB410143EBC250B2F57C0F38BF12
:10194000704729D512F0F00F1CBF00F1C04000F025
:1019500000407047008182838485868788898B8CCC
:101960008D8E8F919293959697999A9C9D9FA0A208
:10197000A3A5A7A8AAACAEB0B2B3B5B7B9BCBEC058
:10198000C2C5C7C9CCCED1D4D7D9DCDFE2E6E9ECF9
:10199000F0F3F7FAFE0000004FEA400C0CF1807CF7
:1019A000BCF17E4F28BF7047B0F1C04000F077B95E
:1019B00090EA010F0CEAD11348BF42F480726245ED
:1019C00038BF634507D213F47F0F16D080EA0100B9
:1019D00000F00040704710B500F01BF9097EFC3E96
:1019E00000F005B880EA010000F00040704780EA8E
:1019F000010000F0004000F052B912F47F0F04BF64
:101A00000248704780EA010000F049B90000C07F39
:101A1000C10DD1F19E0206DB4FEA002343F00043E3
:101A200023FA02F07047004207D54FEA4001B1F1B6
:101A3000FE4F02D24FF00000704710B500F0E9F8F9
:101A400049922480002070476FEA20007047000010
:101A500010F0004148BF4042B0FA80F310FA03F2A0
:101A6000C3F19D030BD051EAC35101EB1220530681
:101A700038BF704700F1010008BF20F00100704737
:101A8000B0FA80F310FA03F2C3F19D030AD0D9052E
:101A900001EB1220530638BF704700F1010008BF68
:101AA00020F001007047000050EA010C00F11380A3
:101AB0001CF5000F58BFBCF5000F01D488427047D9
:101AC00007D710F5000F58BF11F5000F15D4884245
:101AD0007047894270471CF5000F04D5BCF5000F14
:101AE000F7D5814270474FF0807C1CEB400F38BF28
:101AF0001CEB410F01D28142704710B500F089F80C
:101B0000922449004FF000504FF08051FFF7B2BED1
:101B10004FF47F0C1CEAD0121EBF1CEAD11392EACC
:101B20000C0F93EA0C0F00F0478090EA010F48BFBA
:101B300042F480724FF0004C4CEA00204CEA012144
:101B400002EB0302A0FB0113A2F50002002918BF5B
:101B500043F001035B0028BF4FEA330342EB22420C
:101B60005FEA132C4CEBC2502EBFBCEB436FB2F5B7
:101B70007C0F70474FEA036CBCF1004F08BF20F0A8
:101B80000100B2F57C0F38BF70470BD582F0FF0221
:101B900012F5803FC8BF704700F1C040D8BF00F0C9
:101BA0000040704700F5000C5FEA4C0C48BF7047DE
:101BB000B0F1C04000F073B890EA010F0CEAD11305
:101BC00048BF42F48072624538BF634504D280EA60
:101BD000010000F00040704710B500F01AF800BF97
:101BE0008900013E00F007B800F009B85FEA410C37
:101BF0005FEA1C6C08D080EA010000F050B85FEA90
:101C0000400C5FEA1C6CF6D14FF00040A0F580005C
:101C100070470EF1020E2EF0030E5EF8044B2442C4
:101C200004D44FEA4102B2F17F4F11D84FEA40038A
:101C3000B3F17F4F0CD80ED14FEAD07CB2F17F4F79
:101C40000CEB4C0C0CF1020C08BF4CEBD17C04E00B
:101C50004FF0080C01E04FEAD17C0CEB4C0324FA66
:101C600003F404F00704B4F1040C06D20EEB840C68
:101C7000BDE810404CF0010C6047DFE80CF00708AD
:101C800002024FF00040A0F5800010BD084642005F
:101C900018BFD2F1807288BF00F0004010BDFF2154
:101CA00041EAD050C005704751EA000C00F11380A2
:101CB0001CF5000F58BFBCF5000F01D481427047DE
:101CC00007D711F5000F58BF10F5000F15D481424A
:101CD0007047894270471CF5000F04D5BCF5000F12
:101CE000F7D5884270474FF0807C1CEB410F38BF1E
:101CF0001CEB400F01D28842704780EA010081EA64
:101D0000000180EA0100FFF7F8BE000090EA010F31
:101D100048BF81F000413FF54CAD421A04D882F033
:101D20000042A0EB020011444FEAD0524FF07F4C2A
:101D30001CEA410FA2EBD15318BF9CEA026F4AD0B4
:101D40004FF0004C4CEA00204CEA012121FA03FC40
:101D5000B0EB0C0C0FD412F0FE0F36D05FEA4C0043
:101D60001DD5001240EBC25038BF70471CF03F0F2A
:101D700018BF70470BE0A2F101025FEA1C2040EBA4
:101D8000C25038BF70471CF07F0F18BF7047C3F1B7
:101D90002003994014BF401E20F0010070478008C6
:101DA0004FEA122308BF7047B0FA80FCA2EB0C0286
:101DB000CCF1280C60FA0CF093EA122F04BF00EB70
:101DC000C25070474FEAC3707047130A5FEADC10D5
:101DD00008BF7047F6E79CEA026F04D010EA5C0F78
:101DE00008BF0020704710B5FFF713FF40DFF63E35
:101DF00081F0004070470CF00F03092B08BF08204A
:101E000000F051800A2B0BD0082B18BF704708BF79
:101E10001CF0400F0AD04FF000004FF00001704757
:101E20001CF0400F18BF4FF0004070471CF0100F1F
:101E300008D020F0704300F07F4242EAD3014FEA1D
:101E40004370704700F0604021F07F4242EA000298
:101E500001F07F4040EA727070474FF0FF0212EAD3
:101E6000D0521CBF92F0FF038B42C2BFD14200EBA5
:101E7000C1507047002A0AD0002B0BD0002900F077
:101E80000040A4BF40F0FE4040F40000704700F066
:101E90000040704743024FF00B0C18BF4CF0806CB1
:101EA0007FF4E2AC70471CF4801F11D01CF4E02FCB
:101EB00003D06FEACC31490070474FF04050EFF348
:101EC000008222F0704242EA000282F300887047EA
:101ED0004FF00000704701020203040506070809DD
:101EE0000A0B0C0D0E0F1010000000000000000087
:101EF0000102030406070809181F0008000000205B
:101F00004800000028010008601F00084800002069
:101F1000380700004401000802000000C800C800A3
:101F20000000004000000000000000000000000071
:101F300000000000000000000000000000000000A1
:101F40000000000000000000000000000000000091
:101F500001000000100000000000000000127A00E4
:04000005080000ED02
:00000001FF
